:09094D00010900010800010A0083
:10092D00E4FDFCC3ED9FEC9E5015E4FBFA0BBB0000
:0F093D00010ABA04F8BBFBF50DBD00010C80E404
:01094C002288
:0300030002088C64
:10088C00C0E0C0D075D000C002C003C004C005C019
:10089C0006C00775A800E509B4010B150A7F327E66
:1008AC000012092D800375080175090075A885D003
:1008BC0007D006D005D004D003D002D0D0D0E0327F
:030013000208CC14
:1008CC00C0E0C0D075D000C002C003C004C005C0D9
:1008DC0006C00775A800E508B4010B050A7F327E37
:1008EC000012092D800375090175080075A885D0C3
:1008FC0007D006D005D004D003D002D0D0D0E0323F
:10090C00C29075A885D3E50A648094805006C2A075
:10091C00C2A180F1D2A1309004C2A080E8D2A08004
:01092C00E4E6
:03000000020800F3
:0C080000787FE4F6D8FD75810A020847F5
:10080C0002090CE493A3F8E493A34003F68001F2ED
:10081C0008DFF48029E493A3F85407240CC8C333ED
:10082C00C4540F4420C8834004F456800146F6DFBC
:10083C00E4800B010204081020408090094DE47EF6
:10084C00019360BCA3FF543F30E509541FFEE493B1
:10085C00A360010ECF54C025E060A840B8E493A378
:10086C00FAE493A3F8E493A3C8C582C8CAC583CAA3
:10087C00F0A3C8C582C8CAC583CADFE9DEE780BE5B
:0109560000A0
:00000001FF
